{
  "contractName": "SupplyChain",
  "abi": [
    {
      "inputs": [],
      "payable": false,
      "stateMutability": "nonpayable",
      "type": "constructor"
    },
    {
      "constant": true,
      "inputs": [],
      "name": "productCount",
      "outputs": [
        {
          "internalType": "uint256",
          "name": "",
          "type": "uint256"
        }
      ],
      "payable": false,
      "stateMutability": "view",
      "type": "function"
    },
    {
      "constant": true,
      "inputs": [
        {
          "internalType": "uint256",
          "name": "",
          "type": "uint256"
        }
      ],
      "name": "products",
      "outputs": [
        {
          "internalType": "uint256",
          "name": "productId",
          "type": "uint256"
        },
        {
          "internalType": "string",
          "name": "productType",
          "type": "string"
        },
        {
          "internalType": "uint256",
          "name": "productionDate",
          "type": "uint256"
        },
        {
          "internalType": "address",
          "name": "producer",
          "type": "address"
        },
        {
          "internalType": "string",
          "name": "status",
          "type": "string"
        },
        {
          "internalType": "string",
          "name": "location",
          "type": "string"
        }
      ],
      "payable": false,
      "stateMutability": "view",
      "type": "function"
    },
    {
      "constant": false,
      "inputs": [
        {
          "internalType": "string",
          "name": "_productType",
          "type": "string"
        },
        {
          "internalType": "string",
          "name": "_status",
          "type": "string"
        },
        {
          "internalType": "string",
          "name": "_location",
          "type": "string"
        }
      ],
      "name": "addProduct",
      "outputs": [],
      "payable": false,
      "stateMutability": "nonpayable",
      "type": "function"
    },
    {
      "constant": true,
      "inputs": [
        {
          "internalType": "uint256",
          "name": "_productId",
          "type": "uint256"
        }
      ],
      "name": "getProduct",
      "outputs": [
        {
          "internalType": "uint256",
          "name": "",
          "type": "uint256"
        },
        {
          "internalType": "string",
          "name": "",
          "type": "string"
        },
        {
          "internalType": "uint256",
          "name": "",
          "type": "uint256"
        },
        {
          "internalType": "address",
          "name": "",
          "type": "address"
        },
        {
          "internalType": "string",
          "name": "",
          "type": "string"
        },
        {
          "internalType": "string",
          "name": "",
          "type": "string"
        }
      ],
      "payable": false,
      "stateMutability": "view",
      "type": "function"
    },
    {
      "constant": false,
      "inputs": [
        {
          "internalType": "uint256",
          "name": "_productId",
          "type": "uint256"
        },
        {
          "internalType": "string",
          "name": "_status",
          "type": "string"
        },
        {
          "internalType": "string",
          "name": "_location",
          "type": "string"
        }
      ],
      "name": "updateProduct",
      "outputs": [],
      "payable": false,
      "stateMutability": "nonpayable",
      "type": "function"
    }
  ],
  "bytecode": "0x608060405234801561001057600080fd5b506000600181905550610fc4806100286000396000f3fe608060405234801561001057600080fd5b50600436106100575760003560e01c80630e34b00e1461005c5780630ecbabff146102455780637acc0b20146103a1578063b9db15b414610561578063e0f6ef8714610721575b600080fd5b6102436004803603606081101561007257600080fd5b810190808035906020019064010000000081111561008f57600080fd5b8201836020820111156100a157600080fd5b803590602001918460018302840111640100000000831117156100c357600080fd5b91908080601f016020809104026020016040519081016040528093929190818152602001838380828437600081840152601f19601f8201169050808301925050505050505091929192908035906020019064010000000081111561012657600080fd5b82018360208201111561013857600080fd5b8035906020019184600183028401116401000000008311171561015a57600080fd5b91908080601f016020809104026020016040519081016040528093929190818152602001838380828437600081840152601f19601f820116905080830192505050505050509192919290803590602001906401000000008111156101bd57600080fd5b8201836020820111156101cf57600080fd5b803590602001918460018302840111640100000000831117156101f157600080fd5b91908080601f016020809104026020016040519081016040528093929190818152602001838380828437600081840152601f19601f82011690508083019250505050505050919291929050505061073f565b005b61039f6004803603606081101561025b57600080fd5b81019080803590602001909291908035906020019064010000000081111561028257600080fd5b82018360208201111561029457600080fd5b803590602001918460018302840111640100000000831117156102b657600080fd5b91908080601f016020809104026020016040519081016040528093929190818152602001838380828437600081840152601f19601f8201169050808301925050505050505091929192908035906020019064010000000081111561031957600080fd5b82018360208201111561032b57600080fd5b8035906020019184600183028401116401000000008311171561034d57600080fd5b91908080601f016020809104026020016040519081016040528093929190818152602001838380828437600081840152601f19601f820116905080830192505050505050509192919290505050610864565b005b6103cd600480360360208110156103b757600080fd5b8101908080359060200190929190505050610936565b60405180878152602001806020018681526020018573ffffffffffffffffffffffffffffffffffffffff1673ffffffffffffffffffffffffffffffffffffffff1681526020018060200180602001848103845289818151815260200191508051906020019080838360005b83811015610453578082015181840152602081019050610438565b50505050905090810190601f1680156104805780820380516001836020036101000a031916815260200191505b50848103835286818151815260200191508051906020019080838360005b838110156104b957808201518184015260208101905061049e565b50505050905090810190601f1680156104e65780820380516001836020036101000a031916815260200191505b50848103825285818151815260200191508051906020019080838360005b8381101561051f578082015181840152602081019050610504565b50505050905090810190601f16801561054c5780820380516001836020036101000a031916815260200191505b50995050505050505050505060405180910390f35b61058d6004803603602081101561057757600080fd5b8101908080359060200190929190505050610b5a565b60405180878152602001806020018681526020018573ffffffffffffffffffffffffffffffffffffffff1673ffffffffffffffffffffffffffffffffffffffff1681526020018060200180602001848103845289818151815260200191508051906020019080838360005b838110156106135780820151818401526020810190506105f8565b50505050905090810190601f1680156106405780820380516001836020036101000a031916815260200191505b50848103835286818151815260200191508051906020019080838360005b8381101561067957808201518184015260208101905061065e565b50505050905090810190601f1680156106a65780820380516001836020036101000a031916815260200191505b50848103825285818151815260200191508051906020019080838360005b838110156106df5780820151818401526020810190506106c4565b50505050905090810190601f16801561070c5780820380516001836020036101000a031916815260200191505b50995050505050505050505060405180910390f35b610729610e18565b6040518082815260200191505060405180910390f35b6001600081548092919060010191905055506040518060c0016040528060015481526020018481526020014281526020013373ffffffffffffffffffffffffffffffffffffffff1681526020018381526020018281525060008060015481526020019081526020016000206000820151816000015560208201518160010190805190602001906107d0929190610e1e565b506040820151816002015560608201518160030160006101000a81548173ffffffffffffffffffffffffffffffffffffffff021916908373ffffffffffffffffffffffffffffffffffffffff160217905550608082015181600401908051906020019061083e929190610e1e565b5060a082015181600501908051906020019061085b929190610e1e565b50905050505050565b60008311801561087657506001548311155b6108e8576040517f08c379a00000000000000000000000000000000000000000000000000000000081526004018080602001828103825260128152602001807f496e76616c69642070726f64756374204944000000000000000000000000000081525060200191505060405180910390fd5b6000806000858152602001908152602001600020905082816004019080519060200190610916929190610e9e565b508181600501908051906020019061092f929190610e9e565b5050505050565b6000602052806000526040600020600091509050806000015490806001018054600181600116156101000203166002900480601f0160208091040260200160405190810160405280929190818152602001828054600181600116156101000203166002900480156109e85780601f106109bd576101008083540402835291602001916109e8565b820191906000526020600020905b8154815290600101906020018083116109cb57829003601f168201915b5050505050908060020154908060030160009054906101000a900473ffffffffffffffffffffffffffffffffffffffff1690806004018054600181600116156101000203166002900480601f016020809104026020016040519081016040528092919081815260200182805460018160011615610100020316600290048015610ab25780601f10610a8757610100808354040283529160200191610ab2565b820191906000526020600020905b815481529060010190602001808311610a9557829003601f168201915b505050505090806005018054600181600116156101000203166002900480601f016020809104026020016040519081016040528092919081815260200182805460018160011615610100020316600290048015610b505780601f10610b2557610100808354040283529160200191610b50565b820191906000526020600020905b815481529060010190602001808311610b3357829003601f168201915b5050505050905086565b60006060600080606080610b6c610f1e565b6000808981526020019081526020016000206040518060c001604052908160008201548152602001600182018054600181600116156101000203166002900480601f016020809104026020016040519081016040528092919081815260200182805460018160011615610100020316600290048015610c2c5780601f10610c0157610100808354040283529160200191610c2c565b820191906000526020600020905b815481529060010190602001808311610c0f57829003601f168201915b50505050508152602001600282015481526020016003820160009054906101000a900473ffffffffffffffffffffffffffffffffffffffff1673ffffffffffffffffffffffffffffffffffffffff1673ffffffffffffffffffffffffffffffffffffffff168152602001600482018054600181600116156101000203166002900480601f016020809104026020016040519081016040528092919081815260200182805460018160011615610100020316600290048015610d2e5780601f10610d0357610100808354040283529160200191610d2e565b820191906000526020600020905b815481529060010190602001808311610d1157829003601f168201915b50505050508152602001600582018054600181600116156101000203166002900480601f016020809104026020016040519081016040528092919081815260200182805460018160011615610100020316600290048015610dd05780601f10610da557610100808354040283529160200191610dd0565b820191906000526020600020905b815481529060010190602001808311610db357829003601f168201915b5050505050815250509050806000015181602001518260400151836060015184608001518560a001518494508191508090509650965096509650965096505091939550919395565b60015481565b828054600181600116156101000203166002900490600052602060002090601f016020900481019282601f10610e5f57805160ff1916838001178555610e8d565b82800160010185558215610e8d579182015b82811115610e8c578251825591602001919060010190610e71565b5b509050610e9a9190610f6a565b5090565b828054600181600116156101000203166002900490600052602060002090601f016020900481019282601f10610edf57805160ff1916838001178555610f0d565b82800160010185558215610f0d579182015b82811115610f0c578251825591602001919060010190610ef1565b5b509050610f1a9190610f6a565b5090565b6040518060c00160405280600081526020016060815260200160008152602001600073ffffffffffffffffffffffffffffffffffffffff16815260200160608152602001606081525090565b610f8c91905b80821115610f88576000816000905550600101610f70565b5090565b9056fea265627a7a7231582046be1fea7f913bdc2c1576acc526e667df9bd43c239ac12144a1e2d0f684afc264736f6c63430005100032",
  "source": "// SPDX-License-Identifier: MIT\r\npragma solidity >=0.5.0 <0.7.0;\r\n\r\ncontract SupplyChain {\r\n    struct Product {\r\n        uint productId;\r\n        string productType;\r\n        uint productionDate;\r\n        address producer;\r\n        string status;\r\n        string location;\r\n    }\r\n\r\n    mapping(uint => Product) public products;\r\n    uint public productCount;\r\n\r\n    // Constructor to initialize the supply chain\r\n    constructor() public {\r\n        productCount = 0;\r\n    }\r\n\r\n    // Function to add a new product to the supply chain\r\n    function addProduct(string memory _productType, string memory _status, string memory _location) public {\r\n        productCount++;\r\n        products[productCount] = Product(productCount, _productType, block.timestamp, msg.sender, _status, _location);\r\n    }\r\n\r\n    // Function to get product details based on ID\r\n    function getProduct(uint _productId) public view returns (uint, string memory, uint, address, string memory, string memory) {\r\n        Product memory product = products[_productId];\r\n        return (product.productId, product.productType, product.productionDate, product.producer, product.status, product.location);\r\n    }\r\n\r\n    // Function to update product status and location\r\n    function updateProduct(uint _productId, string memory _status, string memory _location) public {\r\n        require(_productId > 0 && _productId <= productCount, \"Invalid product ID\");\r\n        Product storage product = products[_productId];\r\n        product.status = _status;\r\n        product.location = _location;\r\n    }\r\n}\r\n",
  "sourcePath": "D:\\Tubes Blockchain\\contracts\\SupplyChain.sol",
  "compiler": {
    "name": "solc",
    "version": "0.5.16+commit.9c3226ce.Emscripten.clang"
  },
  "schemaVersion": "3.4.16",
  "updatedAt": "2023-12-15T06:31:30.174Z",
  "networkType": "ethereum",
  "devdoc": {
    "methods": {}
  },
  "userdoc": {
    "methods": {}
  }
}